:020000040800F2
:10000000B008002029020008CB1E0008DD1A0008F5
:10001000C91E00087B0500089D250008000000009F
:100020000000000000000000000000009F20000809
:1000300055060008000000009D200008A1200008CF
:10004000430200084302000843020008430200087C
:10005000430200084302000843020008430200086C
:10006000430200084302000843020008430200085C
:10007000430200084302000843020008430200084C
:10008000430200084302000843020008430200083C
:10009000430200084302000843020008430200082C
:1000A000430200084302000843020008430200081C
:1000B000430200084302000843020008430200080C
:1000C00043020008430200084302000843020008FC
:1000D00043020008552500084302000843020008B7
:1000E00043020008430200084302000843020008DC
:1000F00043020008430200084302000843020008CC
:1001000043020008430200084302000843020008BB
:1001100043020008430200084302000843020008AB
:1001200043020008430200087D050008430200085E
:10013000430200084302000843020008430200088B
:10014000430200084302000843020008430200087B
:100150004302000843020008890500084302000822
:10016000430200084302000843020008430200085B
:100170004302000843020008430200080000000098
:10018000430200084302000800F002F800F03CF8C7
:100190000AA090E8000C82448344AAF10107DA45E2
:1001A00001D100F031F8AFF2090EBAE80F0013F0F8
:1001B000010F18BFFB1A43F001031847442E00003B
:1001C000642E0000103A24BF78C878C1FAD85207CC
:1001D00024BF30C830C144BF04680C6070470000C1
:1001E0000023002400250026103A28BF78C1FBD840
:1001F000520728BF30C148BF0B6070471FB502F0DF
:1002000045FA1FBD10B510BD00F07DF91146FFF78E
:10021000F5FF02F0EFF900F09BF903B4FFF7F2FFEE
:1002200003BC00F0A3F900000948804709480047D3
:10023000FEE7FEE7FEE7FEE7FEE7FEE7FEE7FEE796
:10024000FEE7FEE704480549054A064B70470000F3
:100250003921000889010008B0020020B008002000
:10026000B0040020B004002053EA020C00F06980C2
:100270002DE9F04B4FF00006002B1FBFB3FA83F5BA
:1002800003FA05F424FA05F65E4012BF1643B2FAEB
:1002900082F502FA05F4C5F120051EBF22FA05FC1D
:1002A00044EA0C04203556EA044C4FEA144418BFC3
:1002B000641C4FF000084FF00009904271EB030CF2
:1002C00039D3002919BFB1FA81F701FA07F6B0FA5C
:1002D00080F700FA07F6C7F120071EBF20FA07FCD7
:1002E00046EA0C062037B6FBF4FCA7EB0507103FE7
:1002F00007F01F0BCBF120060CFA0BFB2CFA06F6CD
:1003000044BFB3460026202FA4BF5E464FF0000B2B
:100310005BEA060C08BF4FF0010B19EB0B09ABFBB6
:10032000027C48EB0608C01B06FB02CC0BFB03CC8F
:1003300071EB0C01C1E70B46024641464846BDE859
:10034000F08B13B54FF000004FF00001AFF30080C9
:10035000BDE81C40704740EA010370B59B072ED1F1
:100360004FF00136042A2AD308C810C99D1B9D43AB
:10037000121F15EAC61517D0D8B2E1B2401A50EADA
:10038000056110D198B2A1B2401A50EA05410AD1D4
:1003900023F07F4024F07F41401A50EA052102D12A
:1003A000180EA0EB146070BDA342DBD018BA21BABE
:1003B000884201D9012070BD4FF0FF3070BD0AB9ED
:1003C000002070BD10F8013B11F8014B63B1A3424E
:1003D0000AD1521E08D010F8013B11F8014B1BB195
:1003E000A34201D1521EEDD1181B70BD4FF0000287
:1003F0000429C0F0128010F0030C00F01B80CCF137
:10040000040CBCF1020F18BF00F8012BA8BF20F8A4
:10041000022BA1EB0C0100F00DB85FEAC17C24BFF8
:1004200000F8012B00F8012B48BF00F8012B7047A2
:100430004FF0000200B5134694469646203922BF7D
:10044000A0E80C50A0E80C50B1F12001BFF4F7AFC8
:10045000090728BFA0E80C5048BF0CC05DF804EBAA
:10046000890028BF40F8042B08BF704748BF20F818
:10047000022B11F0804F18BF00F8012B70470000CD
:100480004FF0013C50F8042B51F8043B9A4221D123
:10049000A2EB0C03934313EACC1317D150F8042BAF
:1004A00051F8043B9A4215D1A2EB0C03934313EA93
:1004B000CC130BD150F8042B51F8043B9A4209D1CC
:1004C000A2EB0C03934313EACC13DBD04FF00000F4
:1004D000704700BFD01A01BAB1FA81F101F01801DA
:1004E00022FA01F0CB40C1F12001DBB2C0B2C01A48
:1004F0002CFA01F3D11A914311EAC311E6D17047E6
:10050000704770477047754600F02CF8AE460500FE
:100510006946534620F00700854618B020B5FFF71E
:1005200091FEBDE820404FF000064FF000074FF06D
:1005300000084FF0000B21F00701AC46ACE8C00901
:10054000ACE8C009ACE8C009ACE8C0098D4670470A
:1005500010B50446AFF300802046BDE81040FFF719
:100560005CBE0000004870474C0200200149182082
:10057000ABBEFEE7260002007047FEE7014800F030
:10058000C7B800008C010020014800F0C1B800008D
:10059000EC01002001681823CAB2103AB2FBF3F252
:1005A000054B6FF30901032A9B5CC36500D9091D44
:1005B00081650846704700009626000810B5014680
:1005C00000208B698A6A4FF0C07453B1B3F5005FA5
:1005D00015D072B1012A0CD0022A0AD0032A09D1FF
:1005E00004E01AB1012A06D0022A03D1C96AC9015E
:1005F00000D5012010BDC96AA142FAD010BD002A61
:10060000F7D0012AF2D0022AF3D0032AF3D010BD8A
:1006100030B50468256825F480252560046863608A
:100620008368402B036803D099600068C26030BDC6
:100630009A600068C16030BD0A4610B501460448A2
:1006400001F004FA002801D072B6FEE710BD0000E8
:1006500048010020704772B6FEE72DE9F0410446DC
:10066000876D00F0DFFA064694F835000025022871
:1006700006D08020606584F834500120BDE8F08108
:100680002068016821F0160101602068416921F0AD
:1006900080014161206C08B9A06C20B1206801681C
:1006A00021F0080101602068016821F0010101606A
:1006B0000CE000F0B7FA801B052807D92020606500
:1006C000032084F8350084F83450D7E720680068A8
:1006D000C007EED194F85C103F208840B86001203C
:1006E00084F8350084F834500020C7E790F83510BE
:1006F000022903D08021416501207047052180F83F
:1007000035100068016821F0010101600020704788
:100710002DE9F84304464FF00009CDF800906348F6
:100720004FF41651A56D0068B0FBF1F72E6894F8F0
:100730005C10082000FA01F131420FD021680A68EC
:1007400052070BD50A6822F004020A6094F85C1084
:100750008840A860606D40F00100606594F85C100E
:100760004FF0010808FA01F0304208D021684969C9
:10077000090604D5A860606D40F00200606594F839
:100780005C1004208840304208D02168096889073D
:1007900004D5A860606D40F00400606594F85C10BA
:1007A00010208840304218D021680968090714D504
:1007B000A86020680168490304D50068000308D5D3
:1007C000A16C07E00168C90503D4016821F00801A4
:1007D0000160216C09B12046884794F85C10202004
:1007E0008840304231D021680968C9062DD5A860FB
:1007F00094F8350005282068016806D0490347D5DC
:10080000006800031DD4616C1CE021F0160101603A
:100810002068416921F080014161206C08B9A06C19
:1008200020B12068016821F00801016094F85C1093
:100830003F208840A86084F8358084F83490216D8A
:100840001FE0E16B09B120468847606D00282BD07E
:10085000606DC00714D0052084F835002068016859
:1008600021F0010101600098401C0090B84203D8BB
:1008700020680068C007F6D184F8358084F8349089
:10088000E16C002910D001B02046BDE8F0430847D4
:100890000168C905D5D4016821F01001016084F810
:1008A000358084F83490CCE7BDE8F8831000002050
:1008B0002DE9F041044600F0B5F906465CB102208E
:1008C00084F83500002584F834502068016821F050
:1008D000010101600DE00120BDE8F08100F0A2F906
:1008E000801B052805D920206065032084F8350089
:1008F000F2E720680068C007F0D12268116820483C
:100900000140D4E901031843D4E9033633431843C3
:1009100063691843A3691843E3691843236A1843BA
:100920000843616A042903D1D4E90B13194308432E
:10093000106020684069666A20F0070130460E4367
:10094000012704280CD1A06A0643E06A40B1204682
:10095000FFF734FE20B14020606584F83570BAE7B7
:10096000206846612046FFF715FE94F85C203F2181
:1009700091408160656584F835700020ACE7000027
:100980003F8010F02DE9F0410446866D90F8340068
:10099000002501280DD0012084F8340094F835702A
:1009A0000020012F07D084F8340002252846BDE836
:1009B000F0810220FBE7022784F83570606520464D
:1009C000FFF726FE94F85C103F208840B060206856
:1009D000016841F016010160206C20B120680168B7
:1009E00041F0080101602068016841F001010160E7
:1009F000DCE7000070B5044600F014F90546601C01
:100A000002D004480078044400F00CF9401BA042D6
:100A1000FAD370BD040000202DE9F84FDFF8BCA127
:100A20000022012503264FF00F090AF1040BAAF159
:100A3000040E00BF0B6805FA02F42340A34270D1F4
:100A40000F7907F00307012F01D0022F16D1876815
:100A50004FEA420806FA08FC27EA0C07D1F80CC056
:100A60000CFA08FC4CEA070CC0F808C04768A7431A
:100A70000C79C4F3001494403C4344600C79E44383
:100A8000A4070AD0C4684FEA420C06FA0CF7BC432C
:100A90008F6807FA0CF72743C7600C7904F003044A
:100AA000022C12D1D40800EB840CDCF8204057074C
:100AB000FF0E09FA07F824EA0804D1F8108008FAB2
:100AC00007F848EA0408CCF8208004684FEA420C92
:100AD00006FA0CF7BC430F7907F0030707FA0CF787
:100AE000274307604C6814F4403F70D03C4C2768A3
:100AF00047F480472760246822F0030704F4804409
:100B00000094384C07EB040CDCF8084897074FEAD0
:100B1000177809FA08F7BC43334FB84202D10027CF
:100B200024E054E0314FB84201D101271EE0304F9C
:100B3000B84201D1022719E02E4FB84201D1032754
:100B400014E02D4FB84201D104270FE02B4FB842DB
:100B500001D105270AE02A4FB84201D1062705E056
:100B6000284FB84201D1072700E0082707FA08F705
:100B70002743CCF80878DAF800405746D1F804C08B
:100B80009C435FEACC2C00D51C433C60DBF8004062
:100B90005F46D1F804C09C435FEA8C2C00D51C430F
:100BA0003C60DEF800407746D1F804C09C435FEA21
:100BB0008C3C00D51C433C60084F083F3C68D1F892
:100BC00004C09C435FEACC3C00D51C433C60521CF3
:100BD000102AFFF42FAFBDE8F88F0000083C014059
:100BE000443802400030014000000240000402404E
:100BF00000080240000C02400010024000140240B5
:100C000000180240001C0240426921EA02030A4027
:100C100043EA0241816170470AB18161704709046A
:100C2000FBE70000014880687047000004000020D6
:100C300070B5040025D094F83D00002520B984F853
:100C40003C50204600F050F9242084F83D002068F4
:100C5000016821F0010101602068016841F4004150
:100C600001602068016821F40041016000F0A4FAED
:100C70004D4A6168914201D84C4900E04C49884294
:100C800001D2012070BD4B492368B0FBF1F15E68D1
:100C900026F03F060E435E606368934206D94FF428
:100CA000967359434FF47A73B1FBF3F12368491CEF
:100CB0001E6A26F03F06314319626168914210D8DE
:100CC0004900401EB0FBF1F2521CC2F30B02042A91
:100CD00001D2042022E0B0FBF1F0401CC0F30B0075
:100CE0001CE0A268F2B301EBC10303EB0116431E43
:100CF000B3FBF6F35B1C43F480431B0549D092B36E
:100D000001EBC10202EB0111401EB0FBF1F0401CEF
:100D1000C0F30B0040F4804040F400402168CA69F1
:100D20004CF6FF739A431043C861D4E9071001439E
:100D30002068026822F0C00211430160D4E9030177
:100D400001432068826848F2FF339A43114381606F
:100D5000D4E9050108432168CA6822F0FF02104364
:100D6000C86001E00EE016E02068016841F0010172
:100D700001602564202084F83D00256384F83E50FE
:100D8000002070BD01EB4106431EB3FBF6F35B1C74
:100D9000B3E70120C2E701EB4101401EB0FBF1F0D7
:100DA000401CC0F30B00B7E7A086010080841E0042
:100DB00000093D0040420F002DE9FF4F83B09A46E5
:100DC000DDE9119793460446DDF84080FFF72AFFDE
:100DD000054694F83D0020287FD11923012240497F
:100DE0002046009500F00CFF002876D194F83C00D6
:100DF000012872D0012084F83C0020680168C907EE
:100E000003D1016841F0010101602068016821F40B
:100E100000610160212084F83D00402084F83E00FC
:100E200000262664C4F82480A4F82A90608D2085CA
:100E30002C48E062CDE9007553465A462046049995
:100E400000F064FE70B930E02A463946204600F0D2
:100E500056FF58B1206C042804D12068016841F481
:100E600000710160012007B0BDE8F08F606A216861
:100E700000780861606A401C6062218D491E89B259
:100E80002185628D521E628522685369DB435B07B0
:100E90000BD469B100781061606A401C6062208DDB
:100EA000401E2085608D401E6085208D0028CBD19E
:100EB0002A463946204600F07DFE0028CAD154F863
:100EC0003D0B016841F400710160202004F81E0907
:100ED000E67766770020C6E7FFE70220C3E7000059
:100EE000020010000000FFFF10B586B00446142178
:100EF0006846FFF79DFA13492068884220D11248BE
:100F00000021026842F002020260006800F0020064
:100F10000590C02000901220CDE90101032003902C
:100F20000420049069460948FFF776FD0648103012
:100F3000016841F400110160006800F400100590A0
:100F400006B010BD0054004030380240000402409A
:100F500002488168027811448160704704000020D3
:100F60000B4810B5016841F400710160016841F45B
:100F700080610160016841F480710160032000F02C
:100F80006FF80F2000F006F800F024F8002010BDE4
:100F9000003C024070B50D4D04464FF47A7128783C
:100FA000B1FBF0F00A490968B1FBF0F000F00CFB6E
:100FB00048B9102C07D200222146501E00F030F80C
:100FC00000206C6070BD012070BD00000400002096
:100FD000100000200A4808B5016841F48041016012
:100FE000006800F4804000900548001F016841F04F
:100FF00080510160006800F08050009008BD000042
:1010000044380240002809DB00F01F020121914012
:101010004009800000F1E020C0F800117047000096
:10102000F0B40E4B1B680C46C3F30223C3F1070553
:10103000042D00D90425191D072901D2002300E041
:10104000DB1E012606FA05F1491E214099409E400B
:10105000761E16403143F0BC01F0BCBA0CED00E046
:10106000064900F0070208684FF6FF03184040EAFF
:101070000220034A10430860704700000CED00E0B6
:101080000000FA052DE9F0470E46050065D0DFF8AF
:101090001481D8F80000F7B200F00700B04207D280
:1010A00088F80070D8F8000000F00700B04254D172
:1010B00028683D4C810712D5400703D5206840F4CD
:1010C000E05020602878000703D5206840F4604095
:1010D00020602068A96820F0F0000843206028788C
:1010E000C0072DD0304968680839012812D002287D
:1010F00013D0032811D00968890700292DDA216847
:1011000021F0030101432160FFF78CFD814641F28C
:10111000883A0EE009688903EFE709688901ECE77E
:10112000FFF780FDA0EB0901514502D90320BDE87E
:10113000F0872068696800F00C00B0EB810FEFD1F8
:10114000D8F80010404601F00701B14207D90770F6
:10115000006800F00700B04201D00120E7E72878DE
:10116000400705D52068E96820F4E0500843206076
:101170002878000706D52068296920F4604040EAF5
:10118000C100206000F038F82168084AC1F303115B
:10119000515CC8400649086006480068FFF7FAFE3F
:1011A0000020C4E7003C0240083802409E260008A8
:1011B0001000002008000020044805490068096864
:1011C000044AC1F38221515CC840704710000020DE
:1011D00008380240AE26000804480549006809683E
:1011E000044AC1F34231515CC840704710000020EE
:1011F00008380240AE260008154810B5006810F007
:101200000C02144813D01449042A0FD0082A0ED116
:101210000F4C241F2268236802F03F025B0207D5AF
:101220002068C0F38810A0FB010106E0084610BD4D
:101230002168C1F38811A1FB00010023FFF714F816
:101240002168C1F30141491C4900B0FBF1F010BD18
:10125000083802400024F40040787D012DE9F84F61
:1012600004006ED02078DFF84C93C007A9F1040584
:101270004AD009F104000168C1F38101012908D0B5
:101280000068C0F3810002280AD1D9F800004002AA
:1012900006D52868800337D560680028E1D033E0A0
:1012A0006068B0F5803F10D0B0F5A02F286810D04E
:1012B00020F480302860286820F48020286060684E
:1012C000A8B1FFF7AFFC06460DE0286840F4803077
:1012D000F4E740F480202860F7E700BFFFF7A2FCA6
:1012E000801B642873D828688003F7D50CE0FFF7CB
:1012F00099FC064605E000BFFFF794FC801B6428BC
:10130000F0D828688003F7D42078DFF8AC82800713
:101310004FF0000A3ED5A748001D016811F00C0FE0
:1013200008D00068C0F3810002280BD1D9F8000072
:10133000400207D42868800716D5E068012800D14C
:1013400012E033E1E068B8B10120C8F80000FFF70F
:1013500069FC064605E000BFFFF764FC801B02281D
:10136000C0D828688007F7D52868216920F0F800E0
:1013700040EAC10028600DE0C8F800A0FFF752FC69
:10138000064604E0FFF74EFC801B02281FD82868A1
:101390008007F7D42078000722D5864F87486169F7
:1013A000703771B101210160FFF73CFC064604E093
:1013B000FFF738FC801B022809D838688007F7D56A
:1013C0000EE0C0F800A0FFF72DFC064605E082E025
:1013D000FFF728FC801B02287DD838688007F7D4E7
:1013E0002078400768D5DFF8CCB100270BF13C0B23
:1013F000DBF80000C0000BD4DBF8001041F0805196
:10140000CBF80010DBF80000012700F080500090BE
:101410006B4E3068C00510D4306840F48070306086
:10142000FFF700FC009005E0FFF7FCFB0099401A75
:10143000022850D83068C005F6D55E4EA0686C36DC
:1014400001280FD00528306810D020F0010030604E
:10145000306820F004003060A068B8B1FFF7E2FB0C
:1014600000900FE0306840F00100F4E740F0040025
:101470003060F7E7FFF7D6FB0099411A41F2883058
:10148000814266D830688007F4D50EE0FFF7CAFBCA
:10149000009007E0FFF7C6FB0099411A41F288303F
:1014A000814256D830688007F4D42FB1DBF80010A1
:1014B00021F08051CBF80010A069C8B33D49091D47
:1014C0000968C1F3810102294AD00228504607D099
:1014D000C8F8600000E03CE0FFF7A4FB04463BE0F6
:1014E0004746C8F86000FFF79DFB064605E000BFD1
:1014F000FFF798FB801B02282BD828688001F7D4BF
:10150000D4E907010843A16A2E4A490802EB0141C8
:10151000626A41EA8211084394F82C1040EA0161A2
:10152000C9F8001001203866FFF77CFB044606E08E
:101530003EE000BFFFF776FB001B022809D82868B1
:101540008001F7D534E000BFFFF76CFB001B0228D9
:1015500002D90320BDE8F88F28688001F4D427E081
:101560000128F7D0D9F80000E26900F48001914227
:101570001CD1226A00F03F01914217D147F6C07199
:10158000626A0140B1EB821F10D1A26A4FF0FF33B3
:1015900000F4403103EB5202B1EB024F06D194F854
:1015A0002C1000F07060B0EB016F01D00120D1E78A
:1015B0000020CFE70438024000004742800E474237
:1015C000007000400000FFFF10B5401EB0F1807FAA
:1015D00001D3012010BD4FF0E02460610F2160179E
:1015E00000F0F8FF0020A06107202061002010BD5E
:1015F000704710B504460068406994F83D10C0F388
:10160000C010212911D180B12068143050E8001F8A
:1016100021F0800140E80012002AF5D1606B08B18A
:10162000FFF71BF8204600F057FE2068406994F849
:101630003E10C0F38010222911D180B120681430EF
:1016400050E8001F21F0400140E80012002AF5D1C7
:10165000A06B08B1FFF701F8204600F016FE00204D
:1016600010BD7047F8B5016804460868CA684B6940
:1016700010F00F0F4FF0000559D003F0010602F4EF
:101680009077374365D0C10705D0D10503D5216CCC
:1016900041F001012164410705D5D90703D0216C30
:1016A00041F002012164810705D5D90703D0216CDF
:1016B00041F004012164010707D502F02001314304
:1016C00003D0216C41F008012164216C00293AD03B
:1016D000800604D5900602D5204600F00BFE206857
:1016E0004069216CC0F38010090700D460B3204624
:1016F00000F0CBFD20684069400621D520681430F9
:1017000050E8001F21F0400140E80012002AF5D106
:10171000A06BA8B16C490165A06BFEF7E7FF00283C
:1017200011D0A06B016D01B0BDE8F0400847830601
:101730000FD593060DD52046BDE8F84000F0DABD80
:101740002046FFF78EFFF8BD2046FFF78AFF25648D
:10175000F8BD266B2023012E79D1C60677D5D60693
:1017600075D50868486800904869400640D5A16B67
:10177000086840680004000CEAD0A28D8242E7D9D4
:10178000E085C869B0F5807F2DD020680C3050E826
:10179000001F21F4807140E80012002AF5D1206872
:1017A000143050E8001F21F0010140E80012002A27
:1017B000F5D12068143050E8001F21F0400140E8C6
:1017C0000012002AF5D184F83E30256320680C30E1
:1017D00050E8001F21F0100140E80012002AF5D166
:1017E000A06BFEF73AFFA08DE18D401A81B229E08F
:1017F000A08DE18D401A81B2E08D0028A8D000298B
:10180000A6D020680C3050E8002F22F4907240E8F7
:101810000026002EF5D12068143050E8002F22F069
:10182000010240E80026002EF5D184F83E30256301
:1018300020680C3050E8002F22F0100240E800230E
:10184000002BF5D12046FFF7D3FEF8BDFFE70506D4
:101850002BD5150629D594F83D002128F5D1A0688F
:10186000B0F5805F01D12069B0B1206A411C2162CE
:10187000216800784860E08C401E0004000CE08481
:10188000E3D12068C16821F08001C1602068C1688F
:1018900041F04001C160D8E7206A0088C0F3080029
:1018A0004860206A801C2062E5E74006CDD55006DE
:1018B000CBD5CA68204622F04002CA6084F83D3089
:1018C00000F00AF9C1E700004921000870B50400E2
:1018D00004D094F83D00002510B106E0012070BD51
:1018E00084F83C50204600F023F8242084F83D0082
:1018F0002068C16821F40051C160204600F05AFD03
:101900002068016921F4904101612068416921F05A
:101910002A0141612068C16841F40051C160256419
:10192000202084F83D0084F83E00002070BD0000B7
:101930002DE9F04387B0064614216846FEF778FD8E
:101940003149306888425BD130480024016841F059
:1019500010010160006800F0100005902B48143859
:10196000016841F0010101600068694600F0010072
:1019700005904FF4C06000900220CDE901040320DF
:101980000390072004902248FFF746F8224D214893
:101990004FF000672860C5E901744FF48068C5E91D
:1019A00003486C614FF48039AC61C5E907492846AA
:1019B0006C62FEF77DFF08B1FEF74DFEB563AE63C6
:1019C000154D144860357830E5E802074020A5E859
:1019D0001101114845F814496030AC61C5E9074967
:1019E0006C62FEF765FF08B1FEF735FE75630022F5
:1019F00011462520AE63FFF713FB2520FFF702FBFE
:101A000007B0BDE8F08300000010014044380240F8
:101A100000000240406402408C01002090F83E30FB
:101A2000202B0ED159B152B190F83C30012B08D087
:101A3000012380F83C300023036300F041BD012006
:101A400070470220704770477047000070B5044629
:101A500090F83D00202836D191B38AB394F83C0029
:101A6000012830D0012084F83C002162A284E28465
:101A700000252564212084F83D00636B1348D8635A
:101A8000636B13481864636B1248D864606B134629
:101A900005652668606B321DFEF774FF21686FF0E4
:101AA0004000086084F83C502068143050E8001F63
:101AB00041F0800140E80012002AF5D1002070BDFD
:101AC000FFE70120FBE70220F9E700003F220008C2
:101AD000812200085921000870477047FEE701681D
:101AE0004A69D24352050FD46FF480624A610021E3
:101AF00040F8301F202242738173026942F00402D1
:101B00000261017301207047002070472DE9F843FE
:101B1000044600680D46DDE90897016898461646B8
:101B200041F4807101604B4600224FF001112046C4
:101B3000009700F065F848B120680068C00502D53C
:101B40004FF4007020640320BDE8F883216805F09D
:101B5000FE0008613B464A461549204600F084F8DD
:101B600088B920684169806900903A464946204614
:101B700000F0C5F848B1206C042804D12068016841
:101B800041F4007101600120DEE7F5B2B8F1010F08
:101B900009D02168300A08613A464946204600F0DB
:101BA000AEF80028E7D1206805610020CCE70000EE
:101BB0000200010070B516460D4604460DE02046B1
:101BC000FFF78DFF08B1012070BD681C05D0FFF73D
:101BD00029F8801BA84207D835B120684069C04366
:101BE0004007ECD4002070BD002044F8300F2021C5
:101BF0006173A073216941F0200121612073E2E744
:101C00002DE9F0471E4690460D460446C1F30747AE
:101C1000DDF8209008E0701C06D0FFF703F8A0EB79
:101C20000900B0420FD876B12068012F18D0806922
:101C300025EA00000004000C14D000214145EAD040
:101C40000020BDE8F087002044F8300F20216173A8
:101C5000A073216941F02001216120730120F0E788
:101C60004069E5E70121E9E72DE9F0479A46914609
:101C70000E46044600254FF02008C1F3074725E033
:101C800020684069C043400514D42068016841F4CD
:101C90000071016021686FF480604861256384F8F9
:101CA0003D8084F83E50206C40F00400206484F8AD
:101CB0003C501FE0B9F1FF3F08D0FEF7B3FFA0EBA7
:101CC0000A0149450CD8B9F1000F09D02068012F4D
:101CD00013D0806926EA00000004000C0BD0CFE787
:101CE00044F8305F84F80D80A573206940F020002F
:101CF000206125730120BDE8F0874069EAE770B5EF
:101D000016460D4604460DE02046FFF7E8FE08B1F2
:101D1000012070BD681C05D0FEF784FF801BA8421F
:101D200007D835B120684069C0430006ECD40020D4
:101D300070BD002044F8300F20216173A073216929
:101D400041F0200121612073E2E700001A4808B544
:101D50000268002142F4800202600068174A00F421
:101D6000800000901648C0E9002180228260920025
:101D7000C2605200C0E9042181610422C161C0E94E
:101D800008120322C0E90A210163FEF791FD08B1A0
:101D9000FEF761FC002211463A20FFF741F93A2094
:101DA000FFF730F9002211464620FFF739F9BDE868
:101DB00008404620FFF726B9303802401064024040
:101DC0003000002030B587B014216846FEF730FBA4
:101DD00015480024016841F080010160016801F0AC
:101DE00080010591016841F001010160016801F085
:101DF00001010591016841F00201016000680B4D8D
:101E000000F0020005900022C0212846FEF704FFE2
:101E1000C02000900120CDE90104694628460394C2
:101E2000FEF7FAFD07B030BD303802400000024036
:101E30000D4810B50B4901600C49416000214FF479
:101E400080428160C0E9031241618161C161016228
:101E5000FEF7EEFE002803D0BDE81040FEF7FBBB06
:101E600010BD00000054004090000020A08601003A
:101E700010B5144C12480C2120604FF4E130606022
:101E80000020A060E060C4E90401A061E061204698
:101E9000FFF71CFD08B1FEF7DEFB0A48FFF716FD51
:101EA00008B1FEF7D8FB2068C16841F01001C1609D
:101EB00004496422BDE8104064390248FFF7AEBD12
:101EC0000010014048010020FEE7FEE770B5002445
:101ED00004F1B000C0B200F0BDF8002000F0BAF884
:101EE000102000F0B7F80025002000F0C5F86D1CA8
:101EF000EDB2802DF8D3641CE4B2082CE8D370BD99
:101F000010B5C820FEF776FDBDE8104000F048BBD4
:101F100010B50BA1FEF7B4FA4FF0080330B1002161
:101F200009A20846BDE8104000F078B800210DA2D3
:101F3000084600F073F8082300210CA23C20F1E7CA
:101F40004F70656E4D7600004572726F723A205583
:101F50006E657870656374656420706172616D652B
:101F6000746572004F70656E4D763A003300000064
:101F700010B50446B031C8B200F06CF8102040EA49
:101F8000141000F067F804F00F00BDE8104000F0F6
:101F900061B800002DE9F041203A00240D4680464A
:101FA000D6B27F2803D900208D1C8046EDB2102BBD
:101FB00029460FD0FFF7DCFF164906EB460001EB80
:101FC0004005285D00F058F8641CE4B2062CF8D3F4
:101FD000BDE8F081FFF7CCFF0F4F00BF04EB061008
:101FE000385C00F049F8641CE4B2082CF6D36D1C90
:101FF000E9B24046FFF7BCFF5FF0000404EB0610B7
:102000003844007A00F038F8641CE4B2082CF5D3A8
:10201000DEE70000B6260008DE2800082DE9F041C2
:10202000984617460E46044600250DE043463146C5
:102030002046FFF7AFFF0834E4B2782C02D9002421
:10204000B61CF6B26D1CEDB27A5D002AEED1BDE889
:10205000F081000001B584B001214FF4807204A822
:102060008DE807000B46002278210248FEF7A4FE07
:1020700005B000BD9000002001B584B001214FF4EF
:10208000807204A88DE807000B46402278210248A0
:10209000FEF792FE05B000BD90000020704770472B
:1020A000FEF756BF30B593B030216846FEF7C0F951
:1020B00014210CA8FEF7BCF91D480025016841F069
:1020C00080510160006800F080501190194801684B
:1020D00041F4804101600068022400F480401190C6
:1020E0000120039010200490009406940820CDE96C
:1020F0000750A820CDE9090404200B906846FFF79B
:10210000ADF808B172B6FEE70CA90F2081E83100E6
:102110004FF4A0500F904FF48050109005210CA860
:10212000FEF7B0FF002801D072B6FEE713B030BD55
:1021300040380240007000400248016841F47001DC
:102140000160704788ED00E010B5806B0021C1850B
:10215000C184FFF786FA10BD70B5846B20684069B2
:1021600094F83D10C0F3C0100025212904D118B106
:10217000E584204600F0B0F82068406994F83E10ED
:10218000C0F38010222904D118B1E585204600F063
:102190007CF8206C40F0100020642046FFF761FAC4
:1021A00070BD10B50146806B09680968C9052FD458
:1021B0000021C18501680C3151E8002F22F48072A2
:1021C00041E80023002BF5D10168143151E8002FBC
:1021D00022F0010241E80023002BF5D101681431FF
:1021E00051E8002F22F0400241E80023002BF5D1F6
:1021F000202180F83E10016B012909D101680C31C2
:1022000051E8002F22F0100241E80023002BF5D105
:10221000016B012902D0FFF716FC10BD818DFFF77D
:10222000E7F910BD10B5806B016B012902D0FFF7F3
:102230000BFC10BD818D4908FFF7DAF910BD10B510
:102240000146806B09680968C90516D40021C1845C
:102250000168143151E8002F22F0800241E8002388
:10226000002BF5D101680C3151E8002F42F04002FB
:1022700041E80023002BF5D110BDFFF72DFC10BD68
:1022800010B5806BFFF729FC10BD01680C3151E8D7
:10229000002F22F4907241E80023002BF5D1016851
:1022A000143151E8002F22F0010241E80023002BF5
:1022B000F5D1016B012909D101680C3151E8002FDA
:1022C00022F0100241E80023002BF5D1202180F8F4
:1022D0003E1000210163704701680C3151E8002F66
:1022E00022F0C00241E80023002BF5D1202180F824
:1022F0003D10704708B590F83E10222901D0022009
:1023000008BD82684FF480539A4201D1016921B11E
:10231000816A9A421BD04AB10AE00268816A526817
:10232000C2F308020A80816A891C08E0026972B15E
:102330000268526802F07F020A70816A491C816259
:10234000C18D491E0904090CC18503D019E002683A
:102350005268F1E70168CA6822F02002CA60016889
:10236000CA6822F48072CA6001684A6922F00102D8
:102370004A61202180F83E10016B012903D0FFF74C
:1023800062FB002008BD0021016301680C3151E8A7
:10239000002F22F0100241E80023002BF5D1016844
:1023A0000A68D20602D50A6849680091818DFFF754
:1023B0001FF9E6E770B5044600680169E26821F498
:1023C0004051114301612169A068E26908436169D4
:1023D000114308432168CA6849F20C639A430243D7
:1023E000CA6020684169A26921F4407111434161CA
:1023F00031492068884202D03049884202D1FEF734
:10240000EBFE01E0FEF7D8FEE26900231921642506
:102410003226B2F5004F626828D0A0FB0101930F6D
:102420009200FDF721FF0146B0FBF5F06FF01802B6
:10243000504301EB800006EB0010B0FBF5F000F01C
:10244000F002B1FBF5F002EB0012B1FBF5F06FF01A
:102450001803584301EB800006EB0010B0FBF5F0C9
:1024600000F00F0021681044886070BDA0FB0101DE
:1024700092185B41FDF7F8FE0146B0FBF5F0020152
:10248000B1FBF5F06FF01803584301EB800006EB49
:10249000C000B0FBF5F000F0F80002EB4002B1FB29
:1024A000F5F0584301EB800006EBC000B0FBF5F0FF
:1024B00000F00700D6E700000010014000140140C2
:1024C00038B58162828500251346044605642220C2
:1024D00084F83E00A26B1C48D063A26B1B481064BA
:1024E000A26B1B48D064A06B0A4605652168A06BEF
:1024F000091DFEF747FA206801684068009084F8DB
:102500003C50206948B120680C3050E8001F41F46D
:10251000807140E80012002AF5D12068143050E89C
:10252000001F41F0010140E80012002AF5D12068A7
:10253000143050E8001F41F0400140E80012002A2A
:10254000F5D1002038BD0000A32100082522000895
:10255000592100080D4808B500680168C1F3001151
:1025600079B10168406800900848FFF742F80848D0
:10257000006840680749C0F16400087006490120FE
:102580000870BDE808400148FFF76CB8480100201A
:102590008C0100200000002001000020FEE7000068
:1025A000FEB50024094F4FF4807501263819CDE996
:1025B000000601230022782102950548FEF7FCFB66
:1025C000641CE4B21B2CF1D3FEBD000014000020FB
:1025D000900000200907090E002804DB00F1E0202C
:1025E00080F80014704700F00F0000F1E02080F840
:1025F000141D7047FEF7B4FCFFF754FDFFF7E2FB34
:10260000FFF7A4FBFFF734FCFFF712FCFFF778FCA1
:10261000FFF75CFC154F164E164C0025307801284C
:102620001ED1012214A11548FDF795FE70B912A123
:1026300013A0FFF76DFC40213846FEF7E5FA802134
:102640003846FEF7E1FA6420FEF7D4F921780B480A
:10265000FDF7F2FF2570357021780848FDF7C6FEBA
:10266000642206490848FFF7D9F9D7E7000002407D
:10267000010000200000002033000000E4000020E2
:102680004F70656E4D760000480100204FF040709D
:10269000E1EE100A70470006101600061016000042
:1026A0000000000000000102030406070809000002
:1026B0000000010203040000000000000000002FE1
:1026C000000000000700070000147F147F1400249E
:1026D0002A7F2A12006264081323003649552250CB
:1026E00000000503000000001C2241000000412200
:1026F0001C000014083E08140008083E08080000EA
:1027000000A06000000808080808000060600000E1
:10271000002010080402003E5149453E0000427F5F
:102720004000004261514946002141454B310018AB
:1027300014127F10002745454539003C4A4949306D
:102740000001710905030036494949360006494927
:10275000291E000036360000000056360000000832
:10276000142241000014141414140000412214080F
:1027700000020151090600324959513E007C1211F4
:10278000127C007F49494936003E41414122007F89
:102790004141221C007F49494941007F0909090143
:1027A000003E4149497A007F0808087F0000417FC8
:1027B0004100002040413F01007F08142241007F7A
:1027C00040404040007F020C027F007F0408107FE1
:1027D000003E4141413E007F09090906003E41514A
:1027E000215E007F09192946004649494931000107
:1027F000017F0101003F4040403F001F2040201F5B
:10280000003F4038403F006314081463000708701D
:10281000080700615149454300007F4141000055D0
:102820002A552A55000041417F000004020102049C
:102830000040404040400000010204000020545489
:102840005478007F484444380038444444200038D9
:102850004444487F00385454541800087E0901024B
:102860000018A4A4A47C007F080404780000447D20
:102870004000004080847D00007F1028440000005C
:10288000417F4000007C04180478007C0804047830
:1028900000384444443800FC24242418001824241C
:1028A00018FC007C08040408004854545420000418
:1028B0003F444020003C4040207C001C2040201C25
:1028C000003C4030403C004428102844001CA0A09C
:1028D000A07C004464544C441414141414140000D8
:1028E00000000000000000000000000000000000E8
:1028F00000F800000000000000333000000000106D
:102900000C06100C0600000000000000000040C093
:102910007840C0784000043F04043F040400007085
:1029200088FC08300000001820FF211E0000F0087D
:10293000F000E018000000211C031E211E0000F022
:102940000888700000001E2123241927211010166A
:102950000E00000000000000000000000000000069
:1029600000E01804020000000007182040000002E8
:102970000418E0000000004020180700000040405C
:1029800080F0804040000202010F010202000000BE
:1029900000F0000000000101011F01010100000022
:1029A00000000000000080B0700000000000000087
:1029B0000000000000000001010101010101000010
:1029C00000000000000000303000000000000000A7
:1029D000000080601804006018060100000000E09C
:1029E00010080810E000000F102020100F00001049
:1029F00010F8000000000020203F202000000070A0
:102A00000808088870000030282422213000003097
:102A10000888884830000018202020110E0000008F
:102A2000C02010F8000000070424243F240000F810
:102A30000888880808000019212020110E0000E0F5
:102A4000108888180000000F112020110E00003897
:102A50000808C83808000000003F000000000070AF
:102A6000880808887000001C222121221C0000E038
:102A700010080810E0000000312222110F000000B1
:102A800000C0C00000000000003030000000000066
:102A900000800000000000008060000000000000D6
:102AA000804020100800000102040810200040406F
:102AB00040404040400004040404040404000008B2
:102AC0001020408000000020100804020100007067
:102AD00048080808F0000000003036010000C0304F
:102AE000C828E810E0000718272423140B00000072
:102AF000C038E0000000203C23020227382008F8FC
:102B0000888888700000203F202020110E00C030EF
:102B1000080808083800071820202010080008F8C6
:102B200008080810E000203F202020100F0008F8BF
:102B30008888E8081000203F20202320180008F88B
:102B40008888E8081000203F200003000000C03003
:102B500008080838000007182020221E020008F884
:102B600008000008F808203F210101213F2000084B
:102B700008F8080800000020203F20200000000086
:102B80000808F8080800C08080807F00000008F86E
:102B900088C028180800203F20012638200008F8A7
:102BA000080000000000203F20202020300008F80E
:102BB000F800F8F80800203F003F003F200008F828
:102BC00030C00008F808203F200007183F00E01040
:102BD00008080810E0000F10202020100F0008F84F
:102BE00008080808F000203F210101010000E01062
:102BF00008080810E0000F18242438504F0008F887
:102C0000888888887000203F2000030C30200070E6
:102C10008808080838000038202121221C001808E4
:102C200008F8080818000000203F2000000008F8FD
:102C300008000008F808001F202020201F00087846
:102C4000880000C83808000007380E010000F808A6
:102C500000F80008F800033C0700073C03000818D0
:102C600068808068180820302C03032C3020083836
:102C7000C800C83808000000203F200000001008ED
:102C80000808C83808002038262120201800000035
:102C900000FE020202000000007F40404000000CE5
:102CA00030C000000000000000010638C000000233
:102CB0000202FE000000004040407F0000000000D3
:102CC00004020202040000000000000000000000F6
:102CD00000000000000080808080808080800002F2
:102CE00002040000000000000000000000000000DE
:102CF0008080808000000019242222223F2008F8D2
:102D0000008080000000003F112020110E00000014
:102D1000008080800000000E1120202011000000A3
:102D200000808088F800000E112020103F20000055
:102D3000808080800000001F222222221300008059
:102D400080F0888888180020203F202000000000A4
:102D5000808080808000006B94949493600008F8D9
:102D6000008080800000203F210000203F20008064
:102D70009898000000000020203F20200000000064
:102D800000809898000000C08080807F000008F8D4
:102D9000000080808000203F24022D3020000008A9
:102DA00008F8000000000020203F20200000808064
:102DB000808080808000203F20003F20003F808076
:102DC000008080800000203F210000203F20000084
:102DD000808080800000001F202020201F00808035
:102DE00000808000000080FFA12020110E00000064
:102DF000008080808000000E112020A0FF80808055
:102E000080008080800020203F2120000100000001
:102E100080808080800000332424242419000080D6
:102E200080E0808000000000001F202000008080E3
:102E3000000000808000001F202020103F208080A4
:102E400080000080808000010E3008060100808034
:102E50000080008080800F300C030C300F00008059
:102E60008000808080000020312E0E312000808084
:102E700080000080808080818E70180601000080B4
:102E80008080808080000021302C222130000000D2
:102E90000000807C020200000000003F4040000271
:102EA000027C800000000040403F00000000000065
:102EB0000000FF00000000000000FF000000403C98
:102EC00010FF101020108F7808F808F8000000009C
:102ED00000000000000000000000000000000206EA
:102EE00002FF0101044221184681403F000000001A
:102EF000000000000000000000000000000002FED2
:102F00009292FE0200101116F0141310000000003F
:102F10000000000000000000000000000000101F82
:102F20000808FF048141310D030D3141810000008B
:102F3000000000000000000000000000000000FE93
:102F40000222428272022242827202FE00000000CD
:102F5000000000000000000000000000000000FF72
:102F6000100806010E100806014E807F00000000C8
:102F70000000000000000000000000000000000051
:102F800000E0000000FF0000002040800000000082
:102F90000000000000000000000000000000080425
:102FA00003000040807F0000000000010E000000D0
:102FB0000000000000000000000000000000000011
:102FC000F808080C0A0908080808F80000000000C2
:102FD00000000000000000000000000000000000F1
:102FE000FF414141414141414141FF00000000009A
:102FF00000000000000000000000000000000000D1
:10300000203000080000002030000000C40100084B
:10301000503000083000002080080000E001000867
:10302000000000000100000010000000000000008F
:103030000024F400AE001040B081FFA1A6A83FC854
:10304000D300D580D805D9F1DA12D8308D14AF006D
:040000050800018965
:00000001FF
